{
  "address": "0x3e0223f3362ab424E3039De2e059C3774eb8816B",
  "abi": [
    {
      "inputs": [
        {
          "internalType": "address",
          "name": "priceFeedAddress",
          "type": "address"
        }
      ],
      "stateMutability": "nonpayable",
      "type": "constructor"
    },
    {
      "inputs": [],
      "name": "Fund",
      "outputs": [],
      "stateMutability": "payable",
      "type": "function"
    },
    {
      "inputs": [
        {
          "internalType": "address",
          "name": "",
          "type": "address"
        }
      ],
      "name": "addressToAmountFunded",
      "outputs": [
        {
          "internalType": "uint256",
          "name": "",
          "type": "uint256"
        }
      ],
      "stateMutability": "view",
      "type": "function"
    },
    {
      "inputs": [
        {
          "internalType": "uint256",
          "name": "",
          "type": "uint256"
        }
      ],
      "name": "funders",
      "outputs": [
        {
          "internalType": "address",
          "name": "",
          "type": "address"
        }
      ],
      "stateMutability": "view",
      "type": "function"
    },
    {
      "inputs": [],
      "name": "owner",
      "outputs": [
        {
          "internalType": "address",
          "name": "",
          "type": "address"
        }
      ],
      "stateMutability": "view",
      "type": "function"
    },
    {
      "inputs": [],
      "name": "priceFeed",
      "outputs": [
        {
          "internalType": "contract AggregatorV3Interface",
          "name": "",
          "type": "address"
        }
      ],
      "stateMutability": "view",
      "type": "function"
    },
    {
      "inputs": [],
      "name": "withdraw",
      "outputs": [],
      "stateMutability": "nonpayable",
      "type": "function"
    }
  ],
  "transactionHash": "0xb6af5095f32bffd2d0ef7960d8d4d7ead1673ee054904ea43403dfee61a6bb7d",
  "args": [
    "0xD4a33860578De61DBAbDc8BFdb98FD742fA7028e"
  ],
  "numDeployments": 1,
  "solcInputHash": "49f652c336a4a95abba83928f279a197",
  "bytecode": "0x60806040526802b5e3af16b188000060005534801561001d57600080fd5b50604051610ebf380380610ebf833981810160405281019061003f919061012a565b33600360006101000a81548173ffffffffffffffffffffffffffffffffffffffff021916908373ffffffffffffffffffffffffffffffffffffffff16021790555080600460006101000a81548173ffffffffffffffffffffffffffffffffffffffff021916908373ffffffffffffffffffffffffffffffffffffffff16021790555050610157565b600080fd5b600073ffffffffffffffffffffffffffffffffffffffff82169050919050565b60006100f7826100cc565b9050919050565b610107816100ec565b811461011257600080fd5b50565b600081519050610124816100fe565b92915050565b6000602082840312156101405761013f6100c7565b5b600061014e84828501610115565b91505092915050565b610d59806101666000396000f3fe6080604052600436106100555760003560e01c80633ccfd60b1461005a5780633e47d6f3146100715780636ce1417e146100ae578063741bef1a146100b85780638da5cb5b146100e3578063dc0d3dff1461010e575b600080fd5b34801561006657600080fd5b5061006f61014b565b005b34801561007d57600080fd5b5061009860048036038101906100939190610733565b610397565b6040516100a59190610779565b60405180910390f35b6100b66103af565b005b3480156100c457600080fd5b506100cd6104d1565b6040516100da91906107f3565b60405180910390f35b3480156100ef57600080fd5b506100f86104f7565b604051610105919061081d565b60405180910390f35b34801561011a57600080fd5b5061013560048036038101906101309190610864565b61051d565b604051610142919061081d565b60405180910390f35b600360009054906101000a900473ffffffffffffffffffffffffffffffffffffffff1673ffffffffffffffffffffffffffffffffffffffff163373ffffffffffffffffffffffffffffffffffffffff16146101db576040517f08c379a00000000000000000000000000000000000000000000000000000000081526004016101d2906108ee565b60405180910390fd5b60005b600180549050811015610287576000600182815481106102015761020061090e565b5b9060005260206000200160009054906101000a900473ffffffffffffffffffffffffffffffffffffffff1690506000600260008373ffffffffffffffffffffffffffffffffffffffff1673ffffffffffffffffffffffffffffffffffffffff1681526020019081526020016000208190555050808061027f9061096c565b9150506101de565b50600067ffffffffffffffff8111156102a3576102a26109b4565b5b6040519080825280602002602001820160405280156102d15781602001602082028036833780820191505090505b50600190805190602001906102e7929190610629565b5060003373ffffffffffffffffffffffffffffffffffffffff164760405161030e90610a14565b60006040518083038185875af1925050503d806000811461034b576040519150601f19603f3d011682016040523d82523d6000602084013e610350565b606091505b5050905080610394576040517f08c379a000000000000000000000000000000000000000000000000000000000815260040161038b90610a75565b60405180910390fd5b50565b60026020528060005260406000206000915090505481565b6000546103e7600460009054906101000a900473ffffffffffffffffffffffffffffffffffffffff163461055c90919063ffffffff16565b1015610428576040517f08c379a000000000000000000000000000000000000000000000000000000000815260040161041f90610ae1565b60405180910390fd5b6001339080600181540180825580915050600190039060005260206000200160009091909190916101000a81548173ffffffffffffffffffffffffffffffffffffffff021916908373ffffffffffffffffffffffffffffffffffffffff16021790555034600260003373ffffffffffffffffffffffffffffffffffffffff1673ffffffffffffffffffffffffffffffffffffffff16815260200190815260200160002081905550565b600460009054906101000a900473ffffffffffffffffffffffffffffffffffffffff1681565b600360009054906101000a900473ffffffffffffffffffffffffffffffffffffffff1681565b6001818154811061052d57600080fd5b906000526020600020016000915054906101000a900473ffffffffffffffffffffffffffffffffffffffff1681565b60008061056883610598565b90506000670de0b6b3a764000085836105819190610b01565b61058b9190610b72565b9050809250505092915050565b6000808273ffffffffffffffffffffffffffffffffffffffff1663feaf968c6040518163ffffffff1660e01b815260040160a060405180830381865afa1580156105e6573d6000803e3d6000fd5b505050506040513d601f19601f8201168201806040525081019061060a9190610c30565b5050509150506402540be400816106219190610cab565b915050919050565b8280548282559060005260206000209081019282156106a2579160200282015b828111156106a15782518260006101000a81548173ffffffffffffffffffffffffffffffffffffffff021916908373ffffffffffffffffffffffffffffffffffffffff16021790555091602001919060010190610649565b5b5090506106af91906106b3565b5090565b5b808211156106cc5760008160009055506001016106b4565b5090565b600080fd5b600073ffffffffffffffffffffffffffffffffffffffff82169050919050565b6000610700826106d5565b9050919050565b610710816106f5565b811461071b57600080fd5b50565b60008135905061072d81610707565b92915050565b600060208284031215610749576107486106d0565b5b60006107578482850161071e565b91505092915050565b6000819050919050565b61077381610760565b82525050565b600060208201905061078e600083018461076a565b92915050565b6000819050919050565b60006107b96107b46107af846106d5565b610794565b6106d5565b9050919050565b60006107cb8261079e565b9050919050565b60006107dd826107c0565b9050919050565b6107ed816107d2565b82525050565b600060208201905061080860008301846107e4565b92915050565b610817816106f5565b82525050565b6000602082019050610832600083018461080e565b92915050565b61084181610760565b811461084c57600080fd5b50565b60008135905061085e81610838565b92915050565b60006020828403121561087a576108796106d0565b5b60006108888482850161084f565b91505092915050565b600082825260208201905092915050565b7f596f7520617265206e6f7420746865206f776e65722100000000000000000000600082015250565b60006108d8601683610891565b91506108e3826108a2565b602082019050919050565b60006020820190508181036000830152610907816108cb565b9050919050565b7f4e487b7100000000000000000000000000000000000000000000000000000000600052603260045260246000fd5b7f4e487b7100000000000000000000000000000000000000000000000000000000600052601160045260246000fd5b600061097782610760565b91507fffffffffffffffffffffffffffffffffffffffffffffffffffffffffffffffff82036109a9576109a861093d565b5b600182019050919050565b7f4e487b7100000000000000000000000000000000000000000000000000000000600052604160045260246000fd5b600081905092915050565b50565b60006109fe6000836109e3565b9150610a09826109ee565b600082019050919050565b6000610a1f826109f1565b9150819050919050565b7f43616c6c204661696c6564210000000000000000000000000000000000000000600082015250565b6000610a5f600c83610891565b9150610a6a82610a29565b602082019050919050565b60006020820190508181036000830152610a8e81610a52565b9050919050565b7f596f75206469646e27742073656e6420656e6f75676821000000000000000000600082015250565b6000610acb601783610891565b9150610ad682610a95565b602082019050919050565b60006020820190508181036000830152610afa81610abe565b9050919050565b6000610b0c82610760565b9150610b1783610760565b9250828202610b2581610760565b91508282048414831517610b3c57610b3b61093d565b5b5092915050565b7f4e487b7100000000000000000000000000000000000000000000000000000000600052601260045260246000fd5b6000610b7d82610760565b9150610b8883610760565b925082610b9857610b97610b43565b5b828204905092915050565b600069ffffffffffffffffffff82169050919050565b610bc281610ba3565b8114610bcd57600080fd5b50565b600081519050610bdf81610bb9565b92915050565b6000819050919050565b610bf881610be5565b8114610c0357600080fd5b50565b600081519050610c1581610bef565b92915050565b600081519050610c2a81610838565b92915050565b600080600080600060a08688031215610c4c57610c4b6106d0565b5b6000610c5a88828901610bd0565b9550506020610c6b88828901610c06565b9450506040610c7c88828901610c1b565b9350506060610c8d88828901610c1b565b9250506080610c9e88828901610bd0565b9150509295509295909350565b6000610cb682610be5565b9150610cc183610be5565b9250828202610ccf81610be5565b91507f80000000000000000000000000000000000000000000000000000000000000008414600084121615610d0757610d0661093d565b5b8282058414831517610d1c57610d1b61093d565b5b509291505056fea26469706673582212209fa3c8dd34578e4d6a104a51dac1c143aa2a14961966d5d58dff25c2fa667e2e64736f6c63430008120033",
  "devdoc": {
    "kind": "dev",
    "methods": {},
    "version": 1
  },
  "userdoc": {
    "kind": "user",
    "methods": {},
    "version": 1
  },
  "storageLayout": {
    "storage": [
      {
        "astId": 56,
        "contract": "contracts/FundMe.sol:FundMe",
        "label": "minUsd",
        "offset": 0,
        "slot": "0",
        "type": "t_uint256"
      },
      {
        "astId": 59,
        "contract": "contracts/FundMe.sol:FundMe",
        "label": "funders",
        "offset": 0,
        "slot": "1",
        "type": "t_array(t_address)dyn_storage"
      },
      {
        "astId": 63,
        "contract": "contracts/FundMe.sol:FundMe",
        "label": "addressToAmountFunded",
        "offset": 0,
        "slot": "2",
        "type": "t_mapping(t_address,t_uint256)"
      },
      {
        "astId": 65,
        "contract": "contracts/FundMe.sol:FundMe",
        "label": "owner",
        "offset": 0,
        "slot": "3",
        "type": "t_address"
      },
      {
        "astId": 68,
        "contract": "contracts/FundMe.sol:FundMe",
        "label": "priceFeed",
        "offset": 0,
        "slot": "4",
        "type": "t_contract(AggregatorV3Interface)45"
      }
    ],
    "types": {
      "t_address": {
        "encoding": "inplace",
        "label": "address",
        "numberOfBytes": "20"
      },
      "t_array(t_address)dyn_storage": {
        "base": "t_address",
        "encoding": "dynamic_array",
        "label": "address[]",
        "numberOfBytes": "32"
      },
      "t_contract(AggregatorV3Interface)45": {
        "encoding": "inplace",
        "label": "contract AggregatorV3Interface",
        "numberOfBytes": "20"
      },
      "t_mapping(t_address,t_uint256)": {
        "encoding": "mapping",
        "key": "t_address",
        "label": "mapping(address => uint256)",
        "numberOfBytes": "32",
        "value": "t_uint256"
      },
      "t_uint256": {
        "encoding": "inplace",
        "label": "uint256",
        "numberOfBytes": "32"
      }
    }
  }
}